:020000040800F2
:10000000B8B90020DD010008550E0008790C000881
:10001000510E0008AD060008691C00080000000031
:100020000000000000000000000000003112000885
:100030001908000800000000C90E0008711300082C
:10004000951C0008F7010008F7010008F7010008F7
:10005000F7010008F70100081D0800084D08000816
:10006000F7010008F7010008F7010008D9070008A8
:10007000F7010008F7010008F7010008F701000880
:10008000F7010008F7010008F7010008F701000870
:10009000F7010008F7010008F7010008F701000860
:1000A000F7010008F7010008F7010008F701000850
:1000B000F7010008F7010008F7010008F701000840
:1000C000F7010008F7010008F7010008F701000830
:1000D000F7010008DD160008F7010008F701000825
:1000E000F7010008F7010008F7010008F701000810
:1000F000F7010008F7010008F7010008F701000800
:10010000F7010008F7010008F7010008F7010008EF
:10011000F7010008F7010008D5130008851400084E
:10012000F7010008F7010008F7010008F7010008CF
:1001300000F002F800F042F80AA090E8000C8244B7
:100140008344AAF10107DA4501D100F037F8AFF294
:10015000090EBAE80F0013F0010F18BFFB1A43F0A5
:10016000010318470828000028280000103A24BF7F
:1001700078C878C1FAD8520724BF30C830C144BF0C
:1001800004680C607047000000230024002500264E
:10019000103A28BF78C1FBD8520728BF30C148BFEA
:1001A0000B607047642900F07B80782900F0B480F0
:1001B000002070471FB51FBD10B510BD00F08AF9B3
:1001C0001146FFF7F7FF01F0F3FE00F0A8F903B4C2
:1001D000FFF7F2FF03BC01F061FE00000948804711
:1001E00009480047FEE7FEE7FEE7FEE7FEE7FEE719
:1001F000FEE7FEE7FEE7FEE704480549054A064B31
:10020000704700007513000831010008B8B30020E2
:10021000B8B90020B8B50020B8B50020704700007C
:100220000FB4044910B503AA029800F025F910BCD8
:100230005DF814FB5C0000202DE9F0410E460446F9
:10024000002020622046E168884730B3252805D089
:10025000D4E901219047206A401CF2E7E16820467A
:1002600000278847050018D0A5F14100192802D8B9
:1002700020354FF400673246294620462760FFF7B5
:1002800091FF40B1012804D0F61D26F0070608367C
:10029000D8E7361DD6E72846DAE7206ABDE8F081C0
:1002A0002DE9F0410646002410687529314616A54F
:1002B00010D0AFF30080002802DA404213A507E017
:1002C00031688A0701D512A502E0490704D511A5B6
:1002D000012401E0AFF3008000210A2206F1240787
:1002E00009E0B0FBF2FCB0FBF2F302FB1C00303083
:1002F00078541846491C0028F3D123462A46304634
:10030000BDE8F04100F05FB8000000002D000000E3
:100310002B0000002000000070B504460D46214669
:100320001068AFF300802188090502D50F4A7A448E
:1003300002E00E4A7A440E32002104F1240305E063
:1003400000F00F060009965D5E54491C0028F7D1A5
:1003500020780023000704D5702D02D009B10223B4
:1003600011322046BDE8704000F02DB81226000082
:100370004FF0000200B5134694469646203922BF3E
:10038000A0E80C50A0E80C50B1F12001BFF4F7AF89
:10039000090728BFA0E80C5048BF0CC05DF804EB6B
:1003A000890028BF40F8042B08BF704748BF20F8D9
:1003B000022B11F0804F18BF00F8012B70477047D7
:1003C0007047704770472DE9F0470D4699469246B1
:1003D000044600F124080168880604D5E06921F08C
:1003E0001001216000E00120A84201DD471B00E070
:1003F0000027A1697A1902EB0900081AA061207888
:10040000C00602D42046AFF30080002608E0D4E9FD
:1004100001211AF806009047206A401C761C2062D1
:100420004E45F4DB2078C0060AD52046AFF30080A5
:1004300006E0D4E9012130209047206A401C206268
:10044000381EA7F10107F4DC07E0D4E9012118F810
:1004500005009047206A401C2062281EA5F1010576
:10046000F3DC2046AFF300802078000602D502209E
:10047000BDE8F0870120FBE7074B70B50D467B44D4
:1004800000F011F80446284600F020F810B14FF0B3
:10049000FF3070BD204670BD131B000001694A1C6F
:1004A00002610878704700B58FB0CDE901310021B5
:1004B000059105497944CDE9031011466846FFF7D7
:1004C000BBFE0FB000BD0000E5FFFFFF007B00F0AA
:1004D00080007047754600F02BF8AE46050069466F
:1004E000534620F00700854618B020B5FFF784FE7C
:1004F000BDE820404FF000064FF000074FF0000825
:100500004FF0000B21F00701AC46ACE8C009ACE8A5
:10051000C009ACE8C009ACE8C0098D46704710B509
:100520000446AFF300802046BDE81040FFF74FBE01
:100530000048704758B300205848806940F4007064
:10054000564988610846806940F010008861544827
:10055000006800F07F40524908605048C06840F48D
:1005600000704E49C8600846C06820F40070C8603A
:100570000846406820F4404048600846406840F41F
:10058000004048600020474908600846006808604D
:100590000846006840F4807008600020091D08606B
:1005A0000846006840F4801008600846006840F47F
:1005B000602008600846006840F4807008600846C3
:1005C000006840F0020008600846006820F40060FF
:1005D000086034480C3000683349084331490C3115
:1005E000086030482830006820F470002D49283118
:1005F00008600846006840F4A0000860002029490F
:10060000303108600846006840F00A00086008467B
:10061000006840F4B07008600846006840F440503C
:1006200008600846006840F4D0200860084600686A
:1006300040F4600008600846006840F0F050086030
:100640001848001D006840F001001649091D0860A7
:100650000846006840F00800086000BF1148001D0F
:10066000006800F008000028F8D10E48001D00685E
:1006700040F004000B49091D086000BF0948001D37
:10068000006800F004000028F8D10648001D00684A
:1006900040F480000349091D0860704700100240C3
:1006A0000010014004240140FFFF030000BFFEE7EB
:1006B0000021002200BF09E00848405C084B5B5C59
:1006C000984201D0501CC2B2481CC1B20429F3DBCD
:1006D0000AB1012070470020FCE70000380000202C
:1006E0003400002070B506460024002500BF11E04C
:1006F0000C4A32F814100C4A32F8140001F0D1FB05
:10070000B04201DD012000E0002005436806050E2F
:10071000601CC4B2062CEBDB0DB1012070BD0020C3
:10072000FCE70000A0000020AC00002070B50446EB
:100730000D4616462648406940F0010024494861AC
:100740002448C4600561466100202249886008464B
:10075000806820F480408860084680688860084689
:10076000806820F4406088600846806840F48060BB
:1007700088600846806820F4407088600846806879
:1007800040F4807088600846806840F0800088608F
:100790000846806840F0200088600846806820F0A5
:1007A000100088600846806820F00E0088600846C7
:1007B000806840F0020088600846806840F00100D0
:1007C000886002230B220121084600F0F1FA70BD77
:1007D000001002400000024000200C49096801F0AE
:1007E000020159B100BF07E0094931F81010094A68
:1007F00022F81010411CC8B20628F5DB03494968ED
:1008000041F00201014A51607047000000000240BF
:1008100088000020940000207047000010B50820D8
:1008200001F06CFB05480068012803D104490870F9
:100830000449087001200449086010BD00012142EC
:1008400031000020320000201404014010B50820BF
:1008500001F054FB04480068012801D103490870E5
:1008600002200349086010BD04012142330000202A
:100870001404014010B500F05FFA0222002108467E
:1008800000F012F802220121002000F00DF80223EE
:1008900006220021184600F08BFA022307220021CD
:1008A000184600F085FA10BD70B504460B46CE1709
:1008B00001EB9676C6F38700CE1701EB9676B6105D
:1008C000A1EB8606B606350E1C4B9B6943F001036F
:1008D0001A4EB3614FEAB63353F820300F26AE40BC
:1008E000B343174E46F82030334653F8203004FA0D
:1008F00005F61E43124B43F82060124B1B6801267D
:100900008E4033430F4E336002F0010343B10D4B71
:100910000C331B6801268E4033430A4E0C3633607D
:1009200002F0020343B1074B08331E6801238B40DA
:100930001E43044B08331E6070BD000000100240CF
:1009400008000140000401402DE9F0410646304610
:1009500001F054FE0446204601F06CFE804631460C
:1009600001F060FF0746002C02DB0A2C00DA0125AB
:100970000A2C02DB642C00DA0225642C03DBB4F5BC
:100980007A7F00DA0325B4F57A7F04DB42F2107037
:10099000844200DA0425012D27D14949384601F067
:1009A00075FE804601F02AFE0A2190FBF1F201FB60
:1009B0001200444908704449384601F067FE8046F9
:1009C00001F01CFE0A2190FBF1F201FB12003D49EF
:1009D00048703E49384601F059FE804601F00EFE4F
:1009E0003849887004F10A00C870022D22D13649B6
:1009F000384601F04BFE804601F000FE0A2190FBD4
:100A0000F1F201FB12002F4908703049384601F01D
:100A10003DFE804601F0F2FD2A4948700A2094FB11
:100A2000F0F100FB11400A30264988700A2094FB3F
:100A3000F0F0C870032D1ED12449384601F026FE7F
:100A4000804601F0DBFD1F4908700A2094FBF0F19D
:100A500000FB11400A301B4948700A2094FBF0F05B
:100A60000A2190FBF1F201FB120016498870642004
:100A700094FBF0F0C870042D1FD10A2094FBF0F114
:100A800000FB11400F4908700A2094FBF0F00A2186
:100A900090FBF1F201FB12000A494870642094FBBC
:100AA000F0F00A2190FBF1F201FB12000549887079
:100AB0004FF47A7094FBF0F0C8700248BDE8F08102
:100AC00000007A44510000200000C842000020418C
:100AD0002DE9F041024600250026002000230024D5
:100AE000002791F803C00CF00F0591F803C00CF03B
:100AF000100CBCF1000F03D091F802C04CEA0505C0
:100B000091F800C0BCF1000F31D0146800202BE038
:100B10004FF0010C0CFA00F3B1F800C00CEA030628
:100B20009E4220D183004FF00F0C0CFA03F7BC4318
:100B300005FA03FC4CEA040491F803C0BCF1280F49
:100B400006D14FF0010C0CFA00FCC2F814C00AE008
:100B500091F803C0BCF1480F05D14FF0010C0CFA1D
:100B600000FCC2F810C0401C0828D1D31460B1F8B2
:100B700000C0BCF1FF0F34DD546800202EE000F10E
:100B8000080C4FF0010808FA0CF3B1F800C00CEAA9
:100B900003069E4221D183004FF00F0C0CFA03F79D
:100BA000BC4305FA03FC4CEA040491F803C0BCF111
:100BB000280F05D100F1080C08FA0CF8C2F81480CF
:100BC00091F803C0BCF1480F07D100F1080C4FF0B9
:100BD000010808FA0CF8C2F81080401C0828CED38F
:100BE0005460BDE8F08141617047016170470000C9
:100BF00030B587B0182101A8FFF7BAFB0025002403
:100C000000BF07E0194830F81400194921F8140012
:100C1000601CC4B2062CF5DB002514E000240BE0B8
:100C200001A850F82400134931F81410084401A910
:100C300041F82400601CC4B2062CF1DB012001F055
:100C40005DF9681CC5B2082DE8DB002409E001A8A5
:100C500050F82400C0F3CF00044921F81400601CB0
:100C6000C4B2062CF3DB07B030BD0000A0000020AA
:100C7000AC0000209400002000BFFEE708B5012171
:100C8000082000F0EFF9E020ADF8000010208DF80A
:100C9000030003208DF8020069460448FFF718FF9F
:100CA000E0210248FFF79FFF08BD0000000C014053
:100CB00008B50121082000F0D5F94FF44070ADF8D7
:100CC000000010208DF8030003208DF80200694613
:100CD0000C48FFF7FDFE4FF480710A48FFF783FFD1
:100CE0004FF400710748FFF780FF4FF48060ADF8C4
:100CF000000028208DF8030069460248FFF7E8FE4F
:100D000008BD0000000C014001464906084A9269EE
:100D100042F00102064B9A61064A526822F0E062F4
:100D2000044B5A601A4652680A435A6070470000E2
:100D3000001002400000014008B50121042000F02D
:100D400091F90320ADF8000028208DF803006946D2
:100D50000148FFF7BDFE08BD0008014008B50121AC
:100D6000282000F07FF91820ADF8000010208DF841
:100D7000030003208DF8020069460B48FFF7A8FE28
:100D800018210948FFF731FF0420ADF800001420B6
:100D90008DF8030069460548FFF79AFE04210348D1
:100DA000FFF723FF08BD0000000C014000140140C4
:100DB0002DE9F0410746884614461D46284600F0B6
:100DC00033F8C5F1040007FA00F60F20284100EAC5
:100DD0000800064306F00F06E21704EBD262521138
:100DE000920002F1E022D2F800212146E31704EB41
:100DF000D3635B11A4EB431C012303FA0CF31A43E6
:100E00002046E31704EBD3635B119B0003F1E0235F
:100E1000C3F800210348005D40EA06100149085567
:100E2000BDE8F08100E400E00146072323EA010267
:100E30001202054B18684FF6FF031840034B184386
:100E40001043014B186070470CED00E00000FA05FC
:100E500000BFFEE77047000070B5002100230F229D
:100E6000C47804B3154C246804F4E064C4F5E06469
:100E7000210AC1F10403CA40447804FA03F18478DA
:100E80001440214309010E4C0678A155047804F062
:100E90001F050124AC4005786D11AD0005F1E0257A
:100EA000C5F8004109E0047804F01F050124AC40B6
:100EB000044D0678761145F8264070BD0CED00E033
:100EC00000E400E080E100E07047000070B500251C
:100ED00049480078494908704948C078082821D015
:100EE00007DC78B1012811D0022813D004282DD1B5
:100EF00014E010281AD020281CD040281ED08028AA
:100F000024D11FE000203C49087023E001203A4929
:100F100008701FE00220384908701BE003203649A2
:100F2000087017E004203449087013E005203249A6
:100F300008700FE00620304908700BE007202E49AA
:100F4000087007E008202C49087003E000202A49B7
:100F5000087000BF00BF2848007870B927480078A3
:100F6000012802D02548007818B9002022490870CD
:100F700003E0224800782049087000F0CFF921A052
:100F8000FFF74EF91FA0FFF74BF900240EE00025F4
:100F900008E01D4800EBC400415D1CA0FFF740F9CC
:100FA000681CC5B2082DF4DB601CC4B2022CEEDB59
:100FB0001548017C15A0FFF733F90F48017813A0FD
:100FC000FFF72EF9002407E0124830F814100FA0A4
:100FD000FFF726F9601CC4B2042CF5DB0E4801783B
:100FE0000AA0FFF71DF90D48017808A0FFF718F9CE
:100FF0000BA0FFF715F970BD6B0000206C000020FE
:1010000034000020410D0A00B800002025640D0ABC
:1010100000000000A000002031000020320000206D
:101020002A0D0A0029B1064AD2690243044BDA614B
:1010300004E0034AD2698243014BDA617047000041
:101040000010024029B1064A12690243044B1A619A
:1010500004E0034A12698243014B1A6170470000A1
:101060000010024029B1064A92690243044B9A617A
:1010700004E0034A92698243014B9A617047000081
:101080000010024029B1064AD2680243044BDA60DC
:1010900004E0034AD2688243014BDA6070470000E3
:1010A0000010024030B500210022002400232D4D05
:1010B0006D6805F00C0121B1042905D0082923D160
:1010C00005E0294D056022E0274D05601FE0254D14
:1010D0006D6805F47012234D6D6805F480340225A7
:1010E00005EB92421CB9214D554305600BE01D4DA7
:1010F0006D6805F400351DB11C4D5543056002E0D7
:10110000194D5543056002E0174D056000BF00BF53
:10111000144D6D6805F0F0010909154D6B5C05680B
:10112000DD4045600F4D6D6805F4E061090A104D22
:101130006B5C4568DD4085600A4D6D6805F4605163
:10114000C90A0B4D6B5C4568DD40C560054D6D6897
:1011500005F44041890B074D6B5CC568B5FBF3F5A1
:10116000056130BD0010024000127A0000093D0008
:10117000180000202800002070B50024002500BFC2
:1011800005E02748405D27494855681CC5B2042D35
:10119000F7DB01202449086000202449C1F8A001A0
:1011A000012000F0ABFE00201F490860012000F084
:1011B000A5FE01201D49C1F8A40100F09FFE0024F6
:1011C0002BE0002521E01648005D4006000E144982
:1011D000085515487C380068012804D10846005D90
:1011E00040F00100085500200F49091F08604FF426
:1011F000FA7000F0A9FE01200C49C1F8A0014FF4DB
:10120000FA7000F0A1FE681CC5B2082DDBDB0020DF
:101210000549091F0860601CC4B2042CD1DB70BDF5
:101220003400002038000020A481214200802142A7
:10123000704710B500F002F810BD00000CB500209A
:10124000019000903348006840F4803031490860D4
:1012500000BF3048006800F4003000900198401C46
:101260000190009818B90198B0F5A06FF1D1294804
:10127000006800F4003010B10120009001E000206F
:1012800000900098012843D12348006840F01000E6
:10129000214908600846006820F0030008600846FD
:1012A000006840F0020008601A4840681949486028
:1012B0000846406848600846406840F480604860DE
:1012C0000846406820F47C1048600846406840F4B6
:1012D000E81048600846006840F08070086000BF71
:1012E0000C48006800F000700028F9D009484068F8
:1012F00020F00300074948600846406840F00200BB
:10130000486000BF0348406800F00C000828F9D18D
:101310000CBD0000001002400020024010B5002467
:1013200000BF09E0064901EBC4020649085D082137
:1013300000F0B0FF601CC4B2032CF3DB10BD000052
:10134000B800002034000020042808D14FF0E0212C
:10135000096941F004014FF0E022116107E04FF00C
:10136000E021096921F004014FF0E022116170478A
:101370007047000010B51348006840F001001149A3
:10138000086008464068104908400E494860084611
:1013900000680E4908400B4908600846006820F4C0
:1013A000802008600846406820F4FE0048604FF442
:1013B0001F008860FFF73DFF4FF0006004490860A0
:1013C00010BD0000001002400000FFF8FFFFF6FE15
:1013D00008ED00E010B51248008A00F00100B8B135
:1013E00010480068C0431049C1F88C01FFF700FCA9
:1013F0003220FFF777F90D4908703220FFF772F9B4
:101400000B490870FFF7B8FEFFF752F90949087059
:101410000348008A20F001000149088210BD000045
:10142000001000408C812142008021422C000020CD
:101430002E0000202D00002070B505460C460F48F8
:10144000C06940F010000D49C8610D4885850485CC
:10145000808940F001000A4988810846008840F0F0
:10146000800008800846008840F0010008800223C0
:10147000362201211846FFF79BFC70BD0010024088
:101480000010004010B53C48008800F00100002822
:101490006BD03A48007800F0800018B938480078DE
:1014A000002862D037490968891C374A127831F818
:1014B000120000F0D9FC33490968891C324A1278BD
:1014C00031F8120000F0AEFC2E49096809882D4A57
:1014D0001268921C02EB41012B4A127831F812007B
:1014E00000F03AFC2749096809884A00254909683B
:1014F000891C01EB4201244A127831F8120000F0F5
:101500004DFC20490968098801EB41021D49096821
:10151000891C01EB42011C4A127831F8120000F0DC
:101520005FFC19480078401C17490870174800787C
:10153000401C164908701348006800881249097851
:10154000884205DC0F4800680078401E0E4908708C
:101550000E480078C82808DD0020084908800A499C
:1015600008700A490870064908700348008820F08E
:1015700001000149088010BD1014004068000020DF
:1015800001000020640000202F0000203000002017
:1015900070B505460C461348C06940F0200011495B
:1015A000C86111480580001F04800F48203800885A
:1015B00040F001000C49203908800B482C38008885
:1015C00040F0800008492C3908800846008840F027
:1015D000010008800223372200210120FFF7E8FBE9
:1015E00070BD0000001002402C1400403648806995
:1015F00040F00400344988610846806940F01000DA
:1016000088610846806940F4805088612F480068EE
:1016100000202E4908602E48406800202C49486070
:101620000846406840F0330048602848006829496F
:1016300008432649086025480C30006840F00C003B
:1016400022490C3108602248C06840F440702049AB
:10165000C8601E481030006840F460001B4910311B
:10166000086000201C490880084600880880084659
:10167000008808800846008840F00400088008467A
:10168000008840F038000880084600880880084636
:10169000008840F4807008800846008840F400709C
:1016A00008800846008808800846008840F44040CA
:1016B00008800846008840F40060088008460088DA
:1016C00040F04000088070470010024000080140D0
:1016D000001001400033B3BB0030014010B50024BE
:1016E00040F22551404800F0EFF800287BD03E48FA
:1016F00000F0A6F904465E2C02D101203B49087097
:101700003B48007838B14D2C05D10120394908708B
:10171000002037490870532C02D101203449087049
:101720003548007800F0800000285CD1324800780D
:1017300000F04000C8B10A2C03D000202E490870E8
:1017400051E02D48007840F080002B4908700020BF
:101750002A4908702A49087001202A490870002087
:1017600029490870294908803DE00D2C06D12248FE
:10177000007840F040002049087034E020480078AC
:1017800020B37C2C08D121480088401C1F490880C8
:1017900000201D49087019E01B48007838B91C4921
:1017A00009681A4A128801EB42014C7009E0164898
:1017B0000078012805D116490968144A128801F8F1
:1017C000124011480078401C0F4908700B480078FF
:1017D00020B1442C02D1012009490870542C02D1B7
:1017E00001200649087010BD00380140600000204B
:1017F000710000206A0000206800002070000020B6
:1018000069000020000000206D0000206E00002014
:101810006400002021B1828942F40052828104E0F8
:1018200082894DF6FF731A408281704710B50446D5
:101830002048844209D101218803FFF723FC0021BD
:101840004FF48040FFF71EFC32E01B48844209D170
:1018500001214804FFF7F6FB00214FF40030FFF7A9
:10186000F1FB25E01548844209D101218804FFF7E6
:10187000E9FB00214FF48020FFF7E4FB18E010485B
:10188000844209D10121C804FFF7DCFB00214FF499
:101890000020FFF7D7FB0BE00A48844208D1012162
:1018A0000805FFF7CFFB00214FF48010FFF7CAFBBC
:1018B00010BD0000003801400044004000480040D6
:1018C000004C00400050004070B502460024002348
:1018D0000025002040F66A16B14200D100BFC1F3D6
:1018E000421501F01F03012606FA03F3012D02D170
:1018F0009689334006E0022D02D1168A334001E07A
:10190000968A33400C12012606FA04F416883440F5
:1019100013B10CB1012000E0002070BDF0B503460A
:10192000002400260025002040F66A17B94200D1A5
:1019300000BF1846C1F3421401F01F06012707FA41
:1019400006F5012C01D10C3004E0022C01D110303D
:1019500000E014301AB107682F43076002E00768FF
:10196000AF430760F0BD00002DE9F04786B00546A3
:101970000E460024A24600BFA1460027B08900B150
:1019800000BF2F462C8A4CF6FF700440F0880443B9
:101990002C82AC894EF6F3100440B088318908439C
:1019A000718908430443AC81AC8A4FF6FF40044080
:1019B000B0890443AC8201A8FFF774FB1F4887423B
:1019C00002D1DDF810A001E0DDF80CA0A88900F438
:1019D000004040B10AEBCA0000EB0A103168490030
:1019E000B0FBF1F807E00AEBCA0000EB0A1031681F
:1019F0008900B0FBF1F86420B8FBF0F00401200985
:101A0000642101FB1089A88900F4004040B1322014
:101A100000EBC900B0FBF1F000F00700044308E060
:101A2000322000EB09106421B0FBF1F000F00F0050
:101A300004432C8106B0BDE8F08700000038014067
:101A400001468888C0F30800704700001CB50020DC
:101A500000900190C8203F490968088000240EE0EA
:101A6000BDF80000401D80B2ADF80000BDF80010C8
:101A700038480068801C20F81410601CC4B2354837
:101A800000680088A042EBDC002413E0BDF80200EF
:101A9000401D80B2ADF80200BDF802102D4800686C
:101AA00002882C480068801C00EB420020F81410CB
:101AB000601CC4B2274800680088A042E6DC00240D
:101AC00014E0BDF80400401D80B2ADF80400BDF87C
:101AD000041020480068008842001E480068801CEE
:101AE00000EB420020F81410601CC4B219480068D2
:101AF0000088A042E5DC002415E0BDF80600401D8A
:101B000080B2ADF80600BDF80610124800680088E3
:101B100000EB40020F480068801C00EB420020F8F8
:101B20001410601CC4B20B4800680088A042E4DCBA
:101B3000002409E007480068083030F8141006A0B7
:101B4000FEF76EFB601CC4B2024800680088A04229
:101B5000F0DC1CBD640000206F6E653A25780D0A2C
:101B6000000000002DE9F0478EB0002400253AA0C7
:101B700000680990394B0FCB05AE0FC6374B1033B9
:101B8000D3E90020D3E9021302AE0BC6019234A0C0
:101B90000068009000BF29E0324931F8140000F0DD
:101BA00061FD824605A850F82410504600F06EFDF5
:101BB00081464FF08B4100F05FFC804601A850F851
:101BC0002410404600F0F6FB07463846FEF7BCFE00
:101BD0000646002506E0705D0AA901EB8401485520
:101BE000681CC5B2042DF6DB601CC4B2042CD3DB28
:101BF00000242BE009A8055D1DF80500012817D178
:101C00000AA911F8250000F09FFB0AA901EB850144
:101C1000487800F099FB0AA901EB8501887800F06B
:101C200093FB0AA901EB8501C87800F08DFB0BE05E
:101C3000142000F089FB142000F086FB142000F033
:101C400083FB142000F080FB601CC4B2042CD1DBA9
:101C50000EB0BDE8F087000003020100242900084F
:101C600001010101A000002000BFFEE700200149A2
:101C700008607047082C004040F08001014A116064
:101C800070470000002C00400120014908607047A7
:101C9000A480054210B57F2000F036F8FFF7E6FF7C
:101CA0000448006808B9012000E0002001490860EC
:101CB00010BD00008881224270B506460C461546CC
:101CC0000121C802FFF7AEF9284600F025F82046AA
:101CD00000F02EF83046FFF7CFFFFFF7C7FF00F008
:101CE00003F8FFF7D1FF70BD08B500208DF80000A4
:101CF0008DF801008DF8020001208DF80300684680
:101D0000FFF7AAF808BD000000F07F01014A11604A
:101D100070470000002C00400021044A126822F4A1
:101D2000C0710143014A116070470000042C00405B
:101D300008B5002100910749096821F07F01009151
:101D400000F07F01009A11430091024A009911604E
:101D500008BD0000042C004070B50446002500209A
:101D60000C49086006E0681C85B24FF6FE7085429B
:101D700000DD05E00848008900F002000028F2D0EC
:101D800000BF05488481012000F0DEF801200149F0
:101D9000086070BD8C0121420030014070B50446DE
:101DA000002500200C49086006E0681C85B24FF64B
:101DB000FE70854200DD05E00848008900F0020061
:101DC0000028F2D000BF05488481012000F0BCF853
:101DD00001200149086070BDA0012242003001408D
:101DE00070B50446002500200C49086006E0681C18
:101DF00085B24FF6FE70854200DD05E00848008997
:101E000000F002000028F2D000BF054884810120C4
:101E100000F09AF801200149086070BDA401224237
:101E20000030014070B50446002500200C490860D0
:101E300006E0681C85B24FF6FE70854200DD05E0C5
:101E40000848008900F002000028F2D000BF0548D1
:101E50008481012000F078F801200149086070BDFC
:101E6000880121420030014070B50446002506E09B
:101E7000681C85B24FF6FE70854200DD05E006481D
:101E8000008900F002000028F2D000BF02488481DF
:101E9000012000F059F870BD00300140014600BF3C
:101EA000704702460B46D11A002901DD88B27047FF
:101EB000484280B2FBE7000010B56FF00400FFF766
:101EC00043FA0A4800680A49B0FBF1F00949087072
:101ED0000846007800EB4001C1EBC0104FF6FF71DF
:101EE00001EAC0000449088010BD00000400002081
:101EF00000127A0056000020580000200146114AC6
:101F000012884A434FF0E0235A6100229A611A4630
:101F1000126942F001021A6100BF4FF0E02210691D
:101F200000F001021AB100F48032002AF5D04FF01F
:101F3000E022126922F001024FF0E0231A61002230
:101F40009A617047580000200146114A12784A43AE
:101F50004FF0E0235A6100229A611A46126942F05A
:101F600001021A6100BF4FF0E022106900F0010287
:101F70001AB100F48032002AF5D04FF0E022126945
:101F800022F001024FF0E0231A6100229A617047AB
:101F90005600002000BF054A128802F04002002AC5
:101FA000F9D0C2B2014B1B1D1A80704700380140A6
:101FB0000220FEF739FF0120FEF7A6FEFFF77CFFA7
:101FC0004FF4165000F074F9FEF7C8FEFEF756FE07
:101FD000FEF76EFEFEF7B0FA434A44490620FEF7CC
:101FE000A5FBFFF703FBFEF745FC40F69F7142F2AD
:101FF0002730FFF721FA3B210846FFF7C9FA4FF4D3
:10200000C0724F217F20FFF757FE4FF4406000F071
:1020100027F9374908600120364908604FF47A7083
:10202000FFF76CFF00203449C1F890015BE03348B2
:10203000007838B1002031490870FFF793FD142073
:1020400000F082F92E48007810B32E480078F8B1DD
:102050002DA0FEF7E5F800202A4908700120254947
:1020600008604FF4FA70FFF749FF00202249C1F8D9
:1020700090014FF4FA70FFF741FF01201D490860FD
:102080004FF4FA70FFF73AFF00201B49C1F89001A6
:102090001E48007878B11E48007860B11448006886
:1020A00000F0D0F84FF4406000F0DAF81049086012
:1020B00000201649087017480078012808D1FEF75B
:1020C00005FF002013490870134908701349087070
:1020D0001348007838B1FFF7B9FC012011490870A6
:1020E00000200F490870A2E7880000204C2401401E
:1020F0006400002090812142008021422C000020B9
:1021000060000020020000205E00000000000020AF
:10211000690000206A000020310000203200002009
:10212000330000200100002070B505460F48007CF8
:1021300020B90E4908688047012070BDB5F5284FC9
:1021400011D269090948C06830F81120002406E05E
:102150000020064BDB680E1923F81600641C94421D
:10216000F6DB0020E9E70220E7E70000740000202A
:1021700000B509494FF42862C868002100F080F8D2
:1021800005494FF428428868002100F079F80120C1
:102190000149087400BD0000740000202DE9F041E1
:1021A00006460024A0461A48007C10B91849086861
:1021B00080471EB94FF0FF30BDE8F081C6F34F15E0
:1021C00006F01F0008B1681C85B240F23F541AE0C7
:1021D0000F48C06830F8140020B908F101001FFA58
:1021E00080F801E04FF00008A8450BD1002705E07A
:1021F0000748C068E11920F811507F1CAF42F7D39F
:102200006001D9E7641E002CE2DA4FF0FF30D3E71B
:10221000740000200022002106E00948C06830F860
:10222000110000B1521C491CB1F5A86FF5D3642010
:1022300050434FF4A863B0FBF3F0C0B27047000006
:102240007400002070B5044604B970BD034880686E
:10225000251A2846FFF768FF00BFF6E77400002044
:1022600070B505462846FFF799FF0446601C08B97B
:10227000002070BD014880682044FAE77400002007
:1022800030B5034601E003F8011B141EA2F1010260
:10229000F9D130BD10B50B46002105E000F0010476
:1022A000545440104C1CE1B29942F7DB10BD0000C1
:1022B00010B586B00446012144F20400FEF7D2FEB8
:1022C0001F48FFF7B3FA4FF40070ADF81400032075
:1022D0008DF8160018208DF8170005A91948FEF78B
:1022E000F7FB4FF48060ADF8140004208DF8170060
:1022F00005A91448FEF7ECFB01940020ADF8080096
:10230000ADF80A00ADF80C00ADF810000C20ADF8E7
:102310000E0001A90A48FFF727FB012240F22551D0
:102320000748FFF7FBFA01210548FFF773FA02237C
:10233000252201210846FEF73BFD06B010BD000036
:1023400000380140000801402DE9F04104461648DC
:10235000055D012015490860FFF7F6FD00201449CE
:10236000C1F894010120FFF7EFFD002617E00020DF
:102370000E49091D086005F08007802F03D1012058
:10238000091D086003E0002008490831086068065C
:10239000050E01200549091D0860701CC6B2082EF3
:1023A000E5DBBDE8F08100003C0000209481214283
:1023B0000080214290EA010F48BF81F0004100F106
:1023C0004282421A3CBF801A89184FEAD0524FF01D
:1023D0007F4C1CEA410FA2EBD15318BF9CEA026F5D
:1023E00000F03B804FF0004C4CEA00204CEA012109
:1023F00021FA03FC10EB0C0C1ED202F1FF325FEA53
:102400001C2040EBC25038BF70471CF07F0F4FEAD2
:10241000400C18BFBCF17F4F38BF7047C3F1200399
:10242000994008BF20F00100BCF17F4F38BF7047D2
:10243000A0F1C04000F0F1B94FEA3C00000A40EBC7
:10244000C25028BF1CF0FF0F4FEA400CE6D018BF67
:10245000BCF17F4F38BF7047EAE79CEA026F05D0B6
:1024600010EA5C0F08BF00F00040704710B500F0A4
:102470008EF900BF64FBBE3E4FF47F0C1CEAD01205
:102480001EBF1CEAD11392EA0C0F93EA0C0F00F066
:10249000858090EA010F48BF42F4807240F4000C3E
:1024A00041F400002CF07F4120F07F4000B58142D4
:1024B000A2EB03020FF2081CACEB504EC0F100007F
:1024C0009EF800E04FEA4E0E00FB0EFC38BF4900BC
:1024D0004FEA2C1C02F5FA020CFB0EF34FEACE1E5B
:1024E0004FEA112C4FEAC1210EEB635E42EB224210
:1024F0000EFB0CFC4FEA1C5300FB03114FEA112C9E
:102500004FEA01310EFB0CFC4FEADC4C00FB0C11D6
:10251000C14228BF09184CEB03335DF804EB10EB04
:10252000410143EBC250B2F57C0F38BF704729D54B
:1025300012F0F00F1CBF00F1C04000F000407047E7
:10254000008182838485868788898B8C8D8E8F918C
:102550009293959697999A9C9D9FA0A2A3A5A7A8B0
:10256000AAACAEB0B2B3B5B7B9BCBEC0C2C5C7C9DC
:10257000CCCED1D4D7D9DCDFE2E6E9ECF0F3F7FA40
:10258000FE0000004FEA400C0CF1807CBCF17E4F55
:1025900028BF7047B0F1C04000F03FB990EA010F8A
:1025A0000CEAD11348BF42F48072624538BF6345DC
:1025B00007D213F47F0F16D080EA010000F000402C
:1025C000704710B500F0E3F8097EFC3E00F005B856
:1025D00080EA010000F00040704780EA010000F04E
:1025E000004000F01AB912F47F0F04BF0248704790
:1025F00080EA010000F011B90000C07F41000B0E1D
:10260000D3F19E0208D950F400034FEA032323FAC2
:1026100002F048BF4042704710B500F0B8F800BF64
:1026200049922480002070476FF0004282EA200027
:102630007047000010F0004148BF4042B0FA80F3FC
:1026400010FA03F2C3F19D030BD051EAC35101EB21
:102650001220530638BF704700F1010008BF20F078
:1026600001007047B0FA80F310FA03F2C3F19D0342
:102670000AD0D90501EB1220530638BF704700F18C
:10268000010008BF20F00100704700004FF47F0CEC
:102690001CEAD0121EBF1CEAD11392EA0C0F93EA77
:1026A0000C0F00F0478090EA010F48BF42F480729F
:1026B0004FF0004C4CEA00204CEA012102EB0302EF
:1026C000A0FB0113A2F50002002918BF43F001038B
:1026D0005B0028BF4FEA330342EB22425FEA132C30
:1026E0004CEBC2502EBFBCEB436FB2F57C0F704772
:1026F0004FEA036CBCF1004F08BF20F00100B2F5B7
:102700007C0F38BF70470BD582F0FF0212F5803F77
:10271000C8BF704700F1C040D8BF00F0004070470C
:1027200000F5000C5FEA4C0C48BF7047B0F1C040A8
:1027300000F073B890EA010F0CEAD11348BF42F4DD
:102740008072624538BF634504D280EA010000F020
:102750000040704710B500F01AF800BF8900013E34
:1027600000F007B800F009B85FEA410C5FEA1C6CA2
:1027700008D080EA010000F050B85FEA400C5FEA40
:102780001C6CF6D14FF00040A0F5800070470EF1B0
:10279000020E2EF0030E5EF8044B244204D44FEADE
:1027A0004102B2F17F4F11D84FEA4003B3F17F4F9E
:1027B0000CD80ED14FEAD07CB2F17F4F0CEB4C0C11
:1027C0000CF1020C08BF4CEBD17C04E04FF0080C7C
:1027D00001E04FEAD17C0CEB4C0324FA03F404F043
:1027E0000704B4F1040C06D20EEB840CBDE81040D3
:1027F0004CF0010C6047DFE80CF0070802024FF0D4
:102800000040A0F5800010BD0846420018BFD2F17C
:10281000807288BF00F0004010BDFF2141EAD05017
:10282000C005704780F0004090EA010F7FF5C9AD08
:1028300081F0004100F007B890EA010F48BF81F035
:1028400000413FF5BEAD421A04D882F00042A0EB31
:10285000020011444FEAD0524FF07F4C1CEA410F66
:10286000A2EBD15318BF9CEA026F4AD04FF0004C44
:102870004CEA00204CEA012121FA03FCB0EB0C0CDD
:102880000FD412F0FE0F36D05FEA4C001DD50012B7
:1028900040EBC25038BF70471CF03F0F18BF704765
:1028A0000BE0A2F101025FEA1C2040EBC25038BFEE
:1028B00070471CF07F0F18BF7047C3F12003994089
:1028C00014BF401E20F00100704780084FEA122319
:1028D00008BF7047B0FA80FCA2EB0C02CCF1280CC8
:1028E00060FA0CF093EA122F04BF00EBC25070475D
:1028F0004FEAC3707047130A5FEADC1008BF7047E5
:10290000F6E79CEA026F04D010EA5C0F08BF0020D3
:10291000704710B5FFF73BFF40DFF63E81F0004007
:1029200070470000FCA9713D0000003F00004040DE
:1029300000002041C520803FCDCC4C3F000000006E
:102940000000A04030313233343536373839414217
:102950004344454640305800303132333435363701
:102960003839616263646566403078008C290008FC
:1029700000000020880000006C010008142A0008F4
:102980008800002030B90000880100080100010023
:1029900000A24A040000000000000000010203043D
:1029A00006070809000000000102030401020304F5
:1029B00006070809020406080000000000000000E5
:1029C0000000000000000000C0CFA4B0999282F87F
:1029D0008090404F2430191202780010FF00000050
:1029E00000000000000000000000000000000000E7
:1029F00000000000000000000000000000000000D7
:102A00007121000815220008D8000020D8A8002055
:042A100000000000C2
:0400000508000131BD
:00000001FF
